:1000000023C13DC13CC13BC13AC139C138C137C12F
:1000100036C135C1EDC133C132C131C130C1FCB9C6
:100020008C55351700000000000000005F00000044
:1000300007000700147F147F14242A7F2A12231339
:1000400008646236495522500005030000001C2256
:1000500041000041221C00082A1C2A0808083E080A
:100060000800503000000808080808006060000020
:1000700020100804023E5149453E00427F400042A4
:10008000615149462141454B311814127F102745D3
:100090004545393C4A49493001710905033649490A
:1000A0004936064949291E003636000000563600FA
:1000B00000000814224114141414144122140800DE
:1000C0000201510906324979413E7E1111117E7FAC
:1000D000494949363E414141227F4141221C7F49E5
:1000E0004949417F090901013E414151327F0808D8
:1000F000087F00417F41002040413F017F081422DA
:10010000417F404040407F0204027F7F0408107F0F
:100110003E4141413E7F090909063E4151215E7F32
:1001200009192946464949493101017F01013F40EA
:1001300040403F1F2040201F7F2018207F6314086D
:1001400014630304780403615149454300007F416F
:1001500041020408102041417F0000040201020412
:100160004040404040000102040020545454787F35
:10017000484444383844444420384444487F385440
:10018000545418087E090102081454543C7F080492
:10019000047800447D40002040443D00007F10284A
:1001A0004400417F40007C041804787C08040478F3
:1001B00038444444387C14141408081414187C7C03
:1001C000080404084854545420043F4440203C4050
:1001D00040207C1C2040201C3C4030403C442810E7
:1001E00028440C5050503C4464544C44FF80808060
:1001F000808080808080808080E08094FC7C3C1CBB
:100200000C0484C4E4F48080808C8032806088A8F0
:10021000904028D0082078B048E0A0F068D850106E
:10022000C030187098B8C88080808080806088A8AE
:10023000904028D0082078B048E0A0F068D850104E
:10024000C030187098B8C80011241FBECFE5D1E0A7
:10025000DEBFCDBF10E0A0E6B0E0E8E7FFE002C0FF
:1002600005900D92AA36B107D9F710E0AAE6B0E0E2
:1002700001C01D92A33CB107E1F762D17BC6C0CE9D
:100280009B01AC0160E87FE482E190E042D62093DC
:10029000A6003093A7004093A8005093A9000895AA
:1002A000682F70E080E090E024E33AEE40E050E018
:1002B00017D60895CF93DF93C4E7D0E089E2FE011B
:1002C00011928A95E9F748E250E060E070E0CE01D3
:1002D00042D6D093C200C093C10010926F00DF914C
:1002E000CF910895CF92DF92EF92FF92E3DFC0901B
:1002F0007000D0907100E0907200F09073006091F7
:10030000B10070E080E090E024E33AEE40E050E09D
:10031000E7D56C0D7D1D8E1D9F1D60939D00709314
:100320009E0080939F009093A000E091AA00F0E0CF
:10033000EE0FFF1FE05AFF4F208131813093B8004C
:100340002093B70040E050E060E87FE482E190E075
:10035000E0D52093A6003093A7004093A8005093C7
:10036000A900C092B200D092B300E092B400F09223
:10037000B5001092B000FF90EF90DF90CF900895FD
:10038000CF9336B396B321E0969591709227C6B37A
:10039000C2FBCC27C0F9C2278091AA0030FF09C058
:1003A000911110C08823D1F08330C1F01092AA00BF
:1003B00014C091110CC0813089F0833079F0209302
:1003C000AA000BC08250823048F082E004C0835003
:1003D000823020F084E08093AA0084DFC11103C042
:1003E0001092B10003C08AE08093B100CF910895CC
:1003F0001F920F920FB60F9211242F933F934F939A
:100400005F936F937F938F939F93AF93BF93EF937C
:10041000FF938091A1009091A200A091A300B091C0
:10042000A4000196A11DB11D8093A1009093A2008C
:10043000A093A300B093A400A3DFFF91EF91BF911D
:10044000AF919F918F917F916F915F914F913F916C
:100450002F910F900FBE0F901F9018950F931F9321
:1004600081E080936A008091AA008093AF00809120
:10047000B7009091B8009093C0008093BF00809126
:100480006F0080936E008091C1009091C2009093A4
:10049000BA008093B9008091B2009091B300A0910E
:1004A000B400B091B5008093AB009093AC00A093E2
:1004B000AD00B093AE008091B0008093A50083E0C2
:1004C0008093AA0088E99AE39093B8008093B700DC
:1004D00080E590E0A0E0B0E08093A6009093A700B4
:1004E000A093A800B093A900E5DE23E030E040E04F
:1004F00050E06091A6007091A7008091A8009091B3
:10050000A900EED40091700010917100209172004A
:1005100030917300600F711F821F931F6093B200B0
:100520007093B3008093B4009093B50084E08093FF
:10053000B0001F910F910895C39A0895C39808952C
:100540008AB582608ABD82E083BF8CE789BD89B7A6
:10055000806189BF81E080BF80E68CBD1BBC8FEFCE
:100560008DBD96E097BD8BBDBC9AC498BB9AC39ACB
:10057000B898C09AB998C19ABA98C29A84E68093FA
:10058000B600DCDFE4E7F0E089E2DF011D928A9546
:10059000E9F7F093C200E093C1001092AA00109214
:1005A000B00048E250E060E070E0CF01D4D4C090E9
:1005B0007000D0907100E0907200F0907300609134
:1005C000B10070E080E090E024E33AEE40E050E0DB
:1005D00087D46C0D7D1D8E1D9F1D60939D007093B3
:1005E0009E0080939F009093A000B8E0CB0EB6E2EF
:1005F000DB1EB9E0EB1EF11CC092BB00D092BC0028
:10060000E092BD00F092BE006DDE7894C8E027E075
:10061000222ED5E001E030E8432E3FE4532E32E1B4
:10062000632E712C4DE0342E1AE0F8948091A100D5
:100630009091A200A091A300B091A40080937000BB
:1006400090937100A0937200B093730078944091DE
:1006500070005091710060917200709173008091F0
:10066000BB009091BC00A091BD00B091BE0084176A
:100670009507A607B707E8F480916A00811119C0B1
:100680008091AA008330A9F0E9DE809170009091FA
:100690007100A0917200B0917300885F994DA64FD0
:1006A000BF4F8093BB009093BC00A093BD00B0935C
:1006B000BE008091AA00823009F447C230F0833036
:1006C00021F0843009F0B1CFA5C39091B0009330F0
:1006D00020F4913008F0DCC107C0973008F427C23D
:1006E0009D3009F0A2CFD2C129DF6091B100809086
:1006F000C1009090C2006623E1F1C0907000D090DC
:100700007100E0907200F090730080919D009091D4
:100710009E00A0919F00B091A000C816D906EA06DD
:10072000FB0638F1E4E78E16E0E09E0611F570E076
:1007300080E090E024E33AEE40E050E0D1D36C0D4D
:100740007D1D8E1D9F1D60939D0070939E00809364
:100750009F009093A00027E030E040E050E06091DF
:10076000A6007091A7008091A8009091A900B8D32D
:100770002AC0F4E78F16F0E09F06A1F580916F0084
:10078000811130C0E0917400F0E0E453FE4FE49139
:10079000E0936F008091AA00833021F123E030E0E4
:1007A00040E050E06091A6007091A7008091A80001
:1007B0009091A90095D3C0907000D0907100E09006
:1007C0007200F09073006C0D7D1D8E1D9F1D609357
:1007D000B2007093B3008093B4009093B500309250
:1007E000B00023CFB0906F00BB2009F495C0C0903B
:1007F0007000D0907100E0907200F090730080E87B
:10080000B81621F0AFEFBA124EC01DC023E030E0A1
:1008100040E050E06091A6007091A7008091A80090
:100820009091A9005DD36C0D7D1D8E1D9F1D609361
:10083000B2007093B3008093B4009093B500B4E01D
:10084000B093B0001BC027E030E040E050E0609182
:10085000A6007091A7008091A8009091A90040D3B4
:100860006C0D7D1D8E1D9F1D6093B2007093B300B3
:100870008093B4009093B500D093B000C40101966A
:100880009093C2008093C100D4011196EC91E111C4
:1008900003C010926F00C9CEF0E0E453FE4FE49124
:1008A000E0936F00C2CEB7FE1DC023E030E040E011
:1008B00050E06091A6007091A7008091A8009091EF
:1008C000A9000ED36C0D7D1D8E1D9F1D6093B2007F
:1008D0007093B3008093B4009093B500B2E0B093EE
:1008E000B00016C08091A6009091A700A091A8002A
:1008F000B091A9008C0D9D1DAE1DBF1D8093B2004F
:100900009093B300A093B400B093B5000093B000EF
:10091000BB0CB0926F0089CE80916A00882309F4E5
:1009200054C0E091AF00E093AA00F0E0EE0FFF1F8B
:10093000E05AFF4F208131813093B8002093B700F7
:1009400040E050E0C301B201E4D22093A60030930E
:10095000A7004093A8005093A900ACDC8091B90097
:100960009091BA009093C2008093C10080916E0074
:1009700080936F008091700090917100A09172003F
:10098000B0917300885F994DA64FBF4F8093BB0015
:100990009093BC00A093BD00B093BE0010926A007B
:1009A0008091AB009091AC00A091AD00B091AE00F1
:1009B0008093B2009093B300A093B400B093B500BD
:1009C0008091A5008093B00030CE74DC8091B1009E
:1009D000C0907000D0907100E0907200F0907300B1
:1009E00081111CC027E030E040E050E06091A6009B
:1009F0007091A7008091A8009091A90071D26C0D10
:100A00007D1D8E1D9F1D6093B2007093B300809377
:100A1000B4009093B500D093B00032C080909D0098
:100A200090909E00A0909F00B090A00027E030E042
:100A300040E050E06091A6007091A7008091A8006E
:100A40009091A9004DD26C0D7D1D8E1D9F1D8616A7
:100A50009706A806B90648F46093B2007093B300F5
:100A60008093B4009093B50008C08092B200909239
:100A7000B300A092B400B092B500E6E0E093B000FD
:100A80008091AA00833009F4D0CD2AC11BBC53C089
:100A9000813049F018F0833041F405C04DDD80917C
:100AA000B6008BBD02C048DD1BBC40917000509168
:100AB000710060917200709173008091B20090910A
:100AC000B300A091B400B091B50084179507A607B4
:100AD000B70708F0AACD8091AA00813031F018F054
:100AE000833029F402C028DD01C028DD1BBC8091C1
:100AF000A6009091A700A091A800B091A9004091F4
:100B00007000509171006091720070917300840FB9
:100B1000951FA61FB71F8093B2009093B300A093B8
:100B2000B400B093B500F3E0F093B0007ECD1BBCF1
:100B3000963009F46DC18091AA00813009F468C132
:100B4000833009F465C1F8DC9DC18091B000853027
:100B500009F45DC118F4882341F0AAC1873009F473
:100B600056C1883009F0A4C106C16091B100662366
:100B700049F1C0907000D0907100E0907200F09048
:100B8000730080919D0090919E00A0919F00B09174
:100B9000A000C816D906EA06FB06A0F070E080E0C7
:100BA00090E024E33AEE40E050E09AD16C0D7D1DD8
:100BB0008E1D9F1D60939D0070939E0080939F00EB
:100BC0009093A000A091C100B091C20080E0A43732
:100BD000B807A1F480916D00811110C0809174005C
:100BE00090E0809765E070E069D18B5D9F4F009346
:100BF0006C00FC01849180936D00ACC020916C006E
:100C00008C9190E0809765E070E058D1820F911D43
:100C10008B5D9F4F2F5F20936C00FC01849180932C
:100C20006D00263008F496C010926C00CD0101963C
:100C30009093C2008093C10011968C91811166C07F
:100C400039DB8091B100C0907000D0907100E090CD
:100C50007200F0907300811112C028EC30E040E087
:100C600050E06091A6007091A7008091A80090913B
:100C7000A90036D16C0D7D1D8E1D9F1D1EC080905C
:100C80009D0090909E00A0909F00B090A00028EC46
:100C900030E040E050E06091A6007091A7008091A4
:100CA000A8009091A9001CD16C0D7D1D8E1D9F1D6B
:100CB00086169706A806B90648F46093B2007093AA
:100CC000B3008093B4009093B50008C08092B20046
:100CD0009092B300A092B400B092B500D093B0004F
:100CE000BDDB8091700090917100A0917200B09175
:100CF0007300885F994DA64FBF4F8093BB009093C0
:100D0000BC00A093BD00B093BE008FCC24E130E0C6
:100D100040E050E06091A6007091A7008091A8008B
:100D20009091A900DDD0C0907000D0907100E0904B
:100D30007200F09073006C0D7D1D8E1D9F1D6093E1
:100D4000B2007093B3008093B4009093B5002092EA
:100D5000B0006BCC8091A6009091A700A091A80054
:100D6000B091A900409170005091710060917200A3
:100D7000709173003DC020916B00E22FF0E0E25EC5
:100D8000FF4FE491EBBD80916D0090E002C095951E
:100D900087952A95E2F780FF02C0CEDB01C0CEDB4B
:100DA00040917000509171006091720070917300D9
:100DB0008091B2009091B300A091B400B091B500C1
:100DC00084179507A607B70708F02FCC80916B0012
:100DD0008F5F80936B00883018F010926B0068C0B2
:100DE0008091A6009091A700A091A800B091A900C1
:100DF000840F951FA61FB71F8093B2009093B30076
:100E0000A093B400B093B500C093B0000ECC1BBC4F
:100E100095DB38C08091B000882321F08A3009F03A
:100E20004AC028C08BDB80916B008F5F883018F43C
:100E300080936B0002C010926B008091A60090918D
:100E4000A700A091A800B091A90040917000509116
:100E500071006091720070917300840F951FA61F3E
:100E6000B71F8093B2009093B300A093B400B093E7
:100E7000B50021C061DBE0916B00F0E0E25EFF4F66
:100E8000E491EBBD4091700050917100609172004F
:100E9000709173008091B2009091B300A091B40062
:100EA000B091B50084179507A607B70708F0BDCB2A
:100EB0001092B000BACB1093B000B7CB55270024E6
:100EC00080FF02C0060E571F660F771F6115710560
:100ED00021F096958795009799F7952F802D089585
:100EE000FF27EE27BB27AA2760FF04C0A20FB31F6E
:100EF000E41FF51F220F331F441F551F969587953A
:100F00007795679589F70097760771F7CF01BD014F
:100F10000895A1E21A2EAA1BBB1BFD010DC0AA1F3A
:100F2000BB1FEE1FFF1FA217B307E407F50720F052
:100F3000A21BB30BE40BF50B661F771F881F991FCD
:100F40001A9469F760957095809590959B01AC0116
:100F5000BD01CF010895DC01862FE82FE199FECF76
:100F60001FBA05C0EEBBE09AE3950DB20D92415059
:080F7000C8F70895F894FFCFC3
:0A0F7800C800C800AC0D983A10271D
:00000001FF
